:1000000064C07EC07DC07CC07BC07AC079C078C02F
:1000100077C076C075C075C09DC072C071C070C019
:100020006FC06EC06DC02A344310100130344310CD
:1000300010012B3543101002200F213F223F2303D4
:1000400024082517263F2707280029002CC32DC484
:100050002EC52FC6312032203320342035203620C3
:1000600037203C3F3D0720404B01E221C04B0000C0
:1000700022D0FC8C02239900394124B99E860B259D
:1000800024067FA6260000000027000000002800AC
:1000900000000029000000002A000000002B0000E2
:1000A00000002C001273002D36B480002E41200871
:1000B000048120CFF7FEFFFF5053E200E1005073B0
:1000C00024DF9E860B24D99E860B11241FBECFE50C
:1000D000D4E0DEBFCDBF10E0A0E6B0E0EAE6FAE093
:1000E00002C005900D92AE3DB107D9F711E0AEED1B
:1000F000B0E001C01D92A932B107E1F7E2D3B3C469
:100100007FCF1F920F920FB60F9211242F938F93D0
:100110009F93EF93FF938BB19CB1E0910601EF5F4A
:10012000EF7120910701E21741F08871E093060119
:10013000F0E0E85FFE4F908301C082E080932801E9
:10014000FF91EF919F918F912F910F900FBE0F9084
:100150001F9018951F920F920FB60F9211248F9334
:100160009F93EF93FF939091E4008091E50098179F
:1001700061F0E091E500EF5FEF71E093E500F0E002
:10018000EA51FF4F80818CB901C05598FF91EF91E2
:100190009F918F910F900FBE0F901F901895109206
:1001A000E4001092E500109206011092070197FFFB
:1001B00003C022E02BB99F7790BD89B988E98AB93D
:1001C00086E880BD089590910601809107019817F7
:1001D00089F0E0910701EF5FEF71E0930701F0E034
:1001E000E85FFE4F808190912801392F20E0280F91
:1001F000311D02C020E031E0C90108959091E40072
:100200009F5F9F712091E5009217E1F3E92FF0E0E5
:10021000EA51FF4F80839093E400559A0895EF923E
:10022000FF92CF93DF93E82EE7017E01F92EE701DD
:1002300001C0E4DF89918823E1F7DF91CF91FF903E
:10024000EF900895DF93CF93CDB7DEB728970FB621
:10025000F894DEBF0FBECDBFBE016F5F7F4F4AE097
:1002600050E0BED3DCDF28960FB6F894DEBF0FBE99
:10027000CDBFCF91DF910895CF93DF93EC0101C003
:10028000BDDFFE01219684918823D1F7DF91CF91C4
:100290000895B99AC198889808958FB9779BFECF31
:1002A0008FB10895C298F9DF80E0F7DFC29A089510
:1002B00085E0F8DF089580E0F5DF81700895DF9331
:1002C000CF930F92CDB7DEB7C2986983E6DF69811D
:1002D000862FE3DFC29A81E00F90CF91DF910895DE
:1002E0001F93182F1150163068F482E0DBDF61E0B5
:1002F00070E002C0660F771F1A95E2F760956823D9
:1003000082E2DDDF1F9108951F93182F11501630E0
:1003100060F482E0C7DF61E070E002C0660F771F23
:100320001A95E2F7682B82E2CADF1F910895682FC1
:1003300085E2C5DF0895EF92FF920F931F93DF933D
:10034000CF930F92CDB7DEB7162F042FC2987983C3
:10035000A4DF7981412F572F7A0105C080E09DDF0E
:10036000F70181937F018E2D811B8017B8F3C29A0C
:100370000F90CF91DF911F910F91FF90EF90089513
:100380000F931F93CF93DF93EC0187E08BDF082F50
:1003900086FF10C080E686DF182F81E6BE01412F60
:1003A000CADF87E17FDF80FF06C0602F606487E2DD
:1003B00086DF01C010E0812FDF91CF911F910F9157
:1003C00008950F931F93DF93CF930F92CDB7DEB7AE
:1003D0008C01C29808C0F8010F5F1F4F8491698398
:1003E0005CDF698161506623B1F7C29A81E00F90AA
:1003F000CF91DF911F910F9108958AEB90E062E019
:10040000E0DF08958CEB90E062E0DBDF08958CEB99
:1004100090E062E0D6DFC19880E044DF682F6E7F15
:1004200080E24DDFC19A08958AEB90E062E0C9DF77
:1004300087E038DF682F87E242DFC19880E032DF53
:10044000682F616080E23BDFC19A0895813011F42A
:10045000EBDF0895DCDF08951F93182F87E022DF7C
:100460008078112319F0882339F402C0882321F001
:1004700088EB90E062E0A5DF1F9108951F93CF9372
:10048000DF93EB01142FC29808DF03C0899105DFC9
:1004900011501123D9F7C29A81E0DF91CF911F91BA
:1004A00008951F93CF93DF93EC01162F80E3BE01D5
:1004B00042E0E4DF8AE2BE0142E0E0DF8CE1F2DE0E
:1004C000113019F4682F616002C0682F6E7F8CE3D1
:1004D000F6DEDF91CF911F910895FF920F931F9346
:1004E000142FF22E413208F05DC0082F0150063063
:1004F00008F058C0223008F055C0875F023020F461
:10050000806242E0BBDF04C08062FB016081D7DE15
:10051000802F8F5E112351F18062612FD0DE81E048
:10052000C1DEFF2051F061E070E0002E02C0660FD6
:10053000771F0A94E2F7682B0AC061E070E0002E92
:1005400002C0660F771F0A94E2F76095682381E284
:10055000B6DE8CE1A7DE61E070E0002E02C0660F1F
:10056000771F0A94E2F76095682316C0806260E204
:10057000A6DE81E097DE61E070E0002E02C0660F2B
:10058000771F0A94E2F7162F682F612B81E297DE1E
:100590008CE188DE682F612B8CE391DE802FB4DE46
:1005A00081E001C080E01F910F91FF9008951F939B
:1005B000182F843040F486E075DE897F612F660F46
:1005C000682B86E27CDE1F910895813019F082301D
:1005D00041F404C080E690E022DE08958CE890E0CB
:1005E0001EDE0895EF92FF921F93DF93CF930F9239
:1005F000CDB7DEB77C01162F87E1498353DE4981F1
:1006000085FF04C082E0E1DF80E01AC0C298442385
:1006100011F480EB01C080EA40DE0BC0F70181914C
:100620007F013BDEF7018081E9DD8AEA90E0F7DDBA
:100630001150112399F7C29A8DEA90E0F0DD81E024
:100640000F90CF91DF911F91FF90EF900895CF937E
:10065000DF9380E001DFC8E3D0E0FE0184913196B2
:1006600064912DDE2296F0E0C036DF07B1F786E216
:1006700090E066E0A6DE82E390E066E0A2DE8CE237
:1006800090E066E09EDE8DE10DDE882321F48EEBA6
:1006900090E062E096DEC4E6D0E0FE0184913196FF
:1006A00064910DDEFE01329784912197FE016491E1
:1006B00006DE81E0D1DEC6E6D0E0CE0165E081DE77
:1006C0002596F0E0CC3ADF07C1F78CEA90E06CE0C9
:1006D00078DE80EC90E065E074DE85EC90E065E02B
:1006E00070DE8FE799EAA3E081509040A040E1F7E7
:1006F00000C0000088E0D6DD833619F081E065DFB8
:1007000003C08FEA90E08BDD80E0A6DE8DDEDF9116
:10071000CF9108952DB1982F93702C7F922B9DB976
:100720009EB18695869581709E7F892B8EB908959E
:1007300097B39C6297BBC29A98B3977D98BB90E59C
:100740009DB9E8DF0895DF93CF930F92CDB7DEB761
:1007500069839FDD6981862FEBDF8FEF9CEDADE62E
:1007600081509040A040E1F700C0000070DF0F9082
:10077000CF91DF9108958FEF64E0E5DF0895AB9AA4
:100780000895AB98089585B38F7C85BBAB9A84B3ED
:10079000886384BB089528E090E8AC98392F38230B
:1007A00011F0AD9A01C0AD98AC9A215011F0969518
:1007B000F4CFAC9808952F923F924F925F926F9230
:1007C0007F928F929F92AF92BF92CF92DF92EF92E1
:1007D000FF920F931F93CF93DF937B018C01822FA6
:1007E00090E0FA01E80FF91F1082D22EDA944D2C16
:1007F000552447FC5094EA01C40DD51DAA24BB24FE
:100800002AE0622E712C812C912C1C010894210865
:10081000310880E2C82E20C0E114F1040105110561
:1008200041F4C501840D951D8215930514F4C88209
:1008300007C0C801B701A4019301B0D0605D68830F
:10084000C801B701A4019301A9D079018A01DA9402
:1008500021970894A108B108D7FEDECFDF91CF9190
:100860001F910F91FF90EF90DF90CF90BF90AF90CE
:100870009F908F907F906F905F904F903F902F90C0
:1008800008951F93182F7DDF80E085DF812F83DFA0
:1008900076DF1F9108951F93DF93CF930F92CDB70B
:1008A000DEB7182F80EB6983A9DC812F8F77A6DC58
:1008B0006981862F8F77A2DC0F90CF91DF911F91F6
:1008C0000895BF92CF92DF92EF92FF920F931F9302
:1008D000DF93CF93CDB7DEB72A970FB6F894DEBF7C
:1008E0000FBECDBF789487E190E059DC4CDF8FEFED
:1008F0009EE9A4E281509040A040E1F700C00000D2
:100900008FEC90E08CDC37DF81E0A0DD88E00FDD4C
:100910008E010F5F1F4FC80133DD8823E1F389810A
:100920008634C9F78D818033B1F7BA80CB80DC8003
:100930008B2DA7DFEB2CFF242091E2003091E30008
:10094000E216F30641F06B2D669580E1A4DFF0928C
:10095000E300E092E200EC2CFF248091E000909113
:10096000E100E816F90641F06C2D669581E193DF10
:10097000F092E100E092E000ED2CFF248091DE0097
:100980009091DF00E816F90631F26D2D669582E14F
:1009900082DFF092DF00E092DE00BDCFA1E21A2EEE
:1009A000AA1BBB1BFD010DC0AA1FBB1FEE1FFF1F13
:1009B000A217B307E407F50720F0A21BB30BE40B63
:1009C000F50B661F771F881F991F1A9469F76095AA
:1009D0007095809590959B01AC01BD01CF01089564
:1009E000FB019F01E8944230BCF04532ACF44A3040
:1009F00029F497FB1EF4909581959F4F642F7727DC
:100A00001ED0805D8A330CF0895D8193CB01009705
:100A1000A9F716F45DE251931082C90100C0DC0110
:100A2000FC01672F71917723E1F7329704C07C9125
:100A30006D9370836291AE17BF07C8F30895AA1B28
:100A4000BB1B51E107C0AA1FBB1FA617B70710F0B9
:100A5000A61BB70B881F991F5A95A9F780959095EB
:0A0A6000BC01CD010895F894FFCF0A
:100A6A0072666D206572726F723A207468652072C0
:100A7A0065736569766520636869702069642069B1
:100A8A007320696E76616C6964210A0072666D2052
:100A9A006572726F723A20746865206669666F20A3
:100AAA0069732066756C6C210A002C20000A006CA0
:100ABA006F61642072666D3730207265676973747E
:100ACA006572207375636365737366756C0A005388
:0E0ADA00797374656D2052656164790A0000BD
:00000001FF
