:1000000012C02CC02BC02AC029C028C027C026C0BF
:1000100025C025C023C0E2C10AC220C01FC01EC027
:100020001DC01CC01BC011241FBECFE5D4E0DEBF25
:10003000CDBF10E0A0E6B0E0EEEBF7E002C0059027
:100040000D92A63AB107D9F711E0A6EAB0E001C0D7
:100050001D92AA30B107E1F7D5D2AFC3D1CF1F921D
:100060000F920FB60F9211248F93809109018F5F29
:10007000809309018F910F900FBE0F901F901895DC
:1000800082B73091090120E0280F311DC901089580
:1000900012BE109209010895DF92EF92FF920F9322
:1000A0001F93CF93DF9383E083BFF2DF8A9A929806
:1000B000E7DFBC0180E090E0E5D220E030EC45EDE8
:1000C00052E4DCD287FDF4CF82E083BFDD24D394F9
:1000D00010E0DEDF8A9A9298D3DFBC0180E090E0E6
:1000E000D1D220E030E042E552E4C8D287FDF4CF1F
:1000F0008A98929AC5DFBC0180E090E0C3D220E0EC
:1001000030E046E153E4BAD287FDF4CF3BC0C8E00B
:10011000D0E000E8E12EFF2480EF90E0E80EF91E29
:10012000B7DF8A9A9298F7018081802369F0A8DF6F
:10013000BC0180E090E0A6D220E030E042E552E44D
:100140009DD287FDF4CF0CC09BDFBC0180E090E026
:1001500099D220E030E043EC52E490D287FDF4CF16
:100160008A98929A8DDFBC0180E090E08BD220E0EB
:1001700030E046E153E482D287FDF4CF0695219723
:1001800079F61F5F1D1518F283DF8A9A929878DF3F
:10019000BC0180E090E076D220E030E043EC52E415
:1001A0006DD287FDF4CF8A98929A6ADFBC0180E015
:1001B00090E068D220E030E046E153E45FD287FD72
:1001C000F4CF8091F0008B3329F0893341F429E09A
:1001D000D22E02C093E0D92E113009F47ACF58DF25
:1001E0004FDFBC0180E090E04DD220E030E84BEBE7
:1001F00053E4A9D218160CF43EC08299F1CF829B29
:10020000FECFC1EFD0E011E001C0182F188288E0C6
:10021000E82EF12C00E83CDF33DFBC0180E090E009
:1002200031D220E030E046E153E48DD2181614F4C8
:10023000115022C08299F0CF2BDF829BFECF20DFAE
:10024000BC0180E090E01ED220E030E046E952E4BC
:1002500015D287FF03C08881800F88830695089494
:10026000E108F108E114F104B1F6812F8F5F2196C6
:10027000893059F601C010E0812FDF91CF911F9195
:100280000F91FF90EF90DF9008958A98929A89B726
:10029000816089BF08958CE38093F000FDDE0895AE
:1002A0008BE38093F00083E68093F10084E08093F9
:1002B000F200F2DE8DE38093F000EEDE89E38093BE
:1002C000F0001092F700E8DE08958091F500282FE5
:1002D00030E020773070359527958770822B089510
:1002E0002091F40030E027703070322F2227330F36
:1002F000330F8091F30090E0877090709695982F5F
:10030000882797958795282B392B8091F20090E0CC
:100310008F779070282B392BC90108952091F40014
:1003200030E020773070E6E0220F331FEA95E1F7E6
:100330008091F30090E08077907073E0880F991FB0
:100340007A95E1F7282B392B8091F10090E08F7797
:100350009070282B392BC90108951F93CF93DF93F9
:10036000B4DF182FBDDFEC01D9DF9C01209729F005
:10037000D093EE00C093ED0004C0C091ED00D09189
:10038000EE002115310529F03093EC002093EB00AD
:1003900004C02091EB003091EC001123B9F480915E
:1003A000EF00882399F0C659D040CE0161EB71E08F
:1003B000CED1462F4F5F225D3040C9016CEC71E019
:1003C000C6D1862F880F860F480F01C040E01093DA
:1003D000EF00842FDF91CF911F9108951F920F920C
:1003E0000FB60F9211242F938F939F93EF93FF9348
:1003F0008BB19CB1E091C800EF5FEF712091C90013
:10040000E21741F08871E093C800F0E0E653FF4F37
:10041000908301C082E08093EA00FF91EF919F9169
:100420008F912F910F900FBE0F901F9018951F92D4
:100430000F920FB60F9211248F939F93EF93FF9318
:100440009091A6008091A700981761F0E091A70015
:10045000EF5FEF71E093A700F0E0E855FF4F808178
:100460008CB901C05598FF91EF919F918F910F909A
:100470000FBE0F901F9018951092A6001092A70023
:100480001092C8001092C90097FF03C022E02BB958
:100490009F7790BD89B988E98AB986E880BD0895BB
:1004A0009091C8008091C900981789F0E091C90027
:1004B000EF5FEF71E093C900F0E0E653FF4F8081FA
:1004C0009091EA00392F20E0280F311D02C020E072
:1004D00031E0C90108959091A6009F5F9F7120911E
:1004E000A7009217E1F3E92FF0E0E855FF4F808372
:1004F0009093A600559A0895EF92FF92CF93DF93C1
:10050000E82EE7017E01F92EE70101C0E4DF8991C1
:100510008823E1F7DF91CF91FF90EF900895CF937B
:10052000DF93EC0101C0D7DFFE012196849188237F
:10053000D1F7DF91CF9108952F923F924F925F9222
:100540006F927F928F929F92AF92BF92CF92DF92E3
:10055000EF92FF920F931F93CF93DF937B018C0158
:10056000822F90E0FA01E80FF91F1082D22EDA9460
:100570004D2C552447FC5094EA01C40DD51DAA24E6
:10058000BB24AAE06A2E712C812C912C1C010894AA
:1005900021083108F0E2CF2E20C0E114F10401055A
:1005A000110541F4C501840D951D8215930514F4C0
:1005B000C88207C0C801B701A4019301DCD0605D07
:1005C0006883C801B701A4019301D5D079018A01DC
:1005D000DA9421970894A108B108D7FEDECFDF9105
:1005E000CF911F910F91FF90EF90DF90CF90BF9030
:1005F000AF909F908F907F906F905F904F903F90C3
:100600002F90089586E290E037DF3FDE8FE79FE48A
:10061000A2E181509040A040E1F700C00000789432
:100620003FDE80E690E068DFAFE5BAEE1197F1F7C4
:1006300000C0000030DE91DE8330E9F0843028F421
:100640008130B1F0823081F70DC0853071F0853096
:1006500018F0863049F703C08CE790E0E4CF83E8D8
:1006600090E0E1CF8BE890E0DECF80E990E0DBCF57
:1006700087E990E0D8CF8EE990E0D5CF40D008F45C
:1006800081E00895E89409C097FB3EF49095809529
:10069000709561957F4F8F4F9F4F9923A9F0F92F48
:1006A00096E9BB279395F695879577956795B795C6
:1006B000F111F8CFFAF4BB0F11F460FF1BC06F5FAC
:1006C0007F4F8F4F9F4F16C0882311F096E911C0BE
:1006D000772321F09EE8872F762F05C0662371F0DF
:1006E00096E8862F70E060E02AF09A95660F771FF3
:1006F000881FDAF7880F9695879597F90895990FCF
:100700000008550FAA0BE0E8FEEF16161706E807DB
:10071000F907C0F012161306E407F50798F0621BFC
:10072000730B840B950B39F40A2661F0232B242BD1
:10073000252B21F408950A2609F4A140A6958FEFF0
:10074000811D811D0895DBDF08F48FEF0895AA1B3A
:10075000BB1B51E107C0AA1FBB1FA617B70710F0AC
:10076000A61BB70B881F991F5A95A9F780959095DE
:10077000BC01CD010895A1E21A2EAA1BBB1BFD01ED
:100780000DC0AA1FBB1FEE1FFF1FA217B307E40770
:10079000F50720F0A21BB30BE40BF50B661F771FC8
:1007A000881F991F1A9469F76095709580959095A8
:0E07B0009B01AC01BD01CF010895F894FFCF6D
:1007BE00546F7563687061642044656D6F2041707D
:1007CE00706C69636174696F6E0A0D006C65667496
:1007DE000A0D0072696768740A0D0075700A0D00C3
:1007EE00646F776E0A0D006261636B0A0D00656EB1
:0607FE007465720A0D0093
:00000001FF
