:1000000012C02CC02BC02AC029C028C027C026C0BF
:1000100025C025C023C02FC257C220C01FC01EC08C
:100020001DC01CC01BC011241FBECFE5D4E0DEBF25
:10003000CDBF10E0A0E6B0E0E8ECF8E002C005902B
:100040000D92AE3CB107D9F711E0AEECB0E001C0C3
:100050001D92A433B107E1F722D334C4D1CF1F924C
:100060000F920FB60F9211248F93809132018F5F00
:10007000809332018F910F900FBE0F901F901895B3
:1000800082B73091320120E0280F311DC901089557
:1000900012BE109232010895DF92EF92FF920F93F9
:1000A0001F93CF93DF9383E083BFF2DF8A9A929806
:1000B000E7DFBC0180E090E06AD320E030EC45ED62
:1000C00052E461D387FDF4CF82E083BFDD24D39473
:1000D00010E0DEDF8A9A9298D3DFBC0180E090E0E6
:1000E00056D320E030E042E552E44DD387FDF4CF13
:1000F0008A98929AC5DFBC0180E090E048D320E066
:1001000030E046E153E43FD387FDF4CF3BC0C8E085
:10011000D0E000E8E12EFF2489E191E0E80EF91E2D
:10012000B7DF8A9A9298F7018081802369F0A8DF6F
:10013000BC0180E090E02BD320E030E042E552E4C7
:1001400022D387FDF4CF0CC09BDFBC0180E090E0A0
:100150001ED320E030E043EC52E415D387FDF4CF0A
:100160008A98929A8DDFBC0180E090E010D320E065
:1001700030E046E153E407D387FDF4CF069521979D
:1001800079F61F5F1D1518F283DF8A9A929878DF3F
:10019000BC0180E090E0FBD220E030E043EC52E490
:1001A000F2D287FDF4CF8A98929A6ADFBC0180E090
:1001B00090E0EDD220E030E046E153E4E4D287FD68
:1001C000F4CF809119018B3329F0893341F429E070
:1001D000D22E02C093E0D92E113009F47ACF58DF25
:1001E0004FDFBC0180E090E0D2D220E030E84BEB62
:1001F00053E42ED318160CF43EC08299F1CF829BA3
:10020000FECFCAE1D1E011E001C0182F188288E0CA
:10021000E82EF12C00E83CDF33DFBC0180E090E009
:10022000B6D220E030E046E153E412D3181614F4BD
:10023000115022C08299F0CF2BDF829BFECF20DFAE
:10024000BC0180E090E0A3D220E030E046E952E437
:100250009AD287FF03C08881800F8883069508940F
:10026000E108F108E114F104B1F6812F8F5F2196C6
:10027000893059F601C010E0812FDF91CF911F9195
:100280000F91FF90EF90DF9008958A98929A89B726
:10029000816089BF08958CE380931901FDDE80930E
:1002A00033018091330108958BE38093190183E634
:1002B00080931A0184E080931B01EEDE8DE380932E
:1002C0001901EADE89E38093190110922001E4DE2E
:1002D00008958BE38093190183E680931A0181E0EE
:1002E00080931B01D9DE08958BE38093190183E687
:1002F00080931A0182E080931B01CEDE08958091E5
:100300001E01282F30E020773070359527958770B3
:10031000822B089520911D0130E027703070322F1C
:100320002227330F330F80911C0190E0877090706B
:100330009695982F882797958795282B392B80910C
:100340001B0190E08F779070282B392BC9010895FD
:1003500020911D0130E020773070E6E0220F331F3E
:10036000EA95E1F780911C0190E08077907073E04E
:10037000880F991F7A95E1F7282B392B80911A0164
:1003800090E08F779070282B392BC90108958091C8
:100390003301882351F080911A0186FF04C08195B2
:1003A0008F73819508958F73089580E008958091EB
:1003B0003301882351F080911B0186FF04C0819591
:1003C0008F73819508958F73089580E008958091CB
:1003D0003301882319F480911801089580911A013E
:1003E00087FF04C081E080931801089510921801DE
:1003F00080E008951F93CF93DF9381DF182F8ADF6A
:10040000EC01A6DF9C01209729F0D0931601C09340
:10041000150104C0C0911501D091160121153105B7
:1004200029F0309314012093130104C0209113018B
:10043000309114011123B9F480911701882399F0A8
:10044000C659D040CE0161EB71E006D2462F4F5F16
:10045000225D3040C9016CEC71E0FED1862F880F1F
:10046000860F480F01C040E010931701842FDF91E1
:10047000CF911F9108951F920F920FB60F921124E2
:100480002F938F939F93EF93FF938BB19CB1E09148
:10049000F000EF5FEF712091F100E21741F08871F9
:1004A000E093F000F0E0EE50FF4F908301C082E057
:1004B00080931201FF91EF919F918F912F910F9057
:1004C0000FBE0F901F9018951F920F920FB60F92AC
:1004D00011248F939F93EF93FF939091CE0080917F
:1004E000CF00981761F0E091CF00EF5FEF71E093DC
:1004F000CF00F0E0E053FF4F80818CB901C05598E8
:10050000FF91EF919F918F910F900FBE0F901F90D1
:1005100018951092CE001092CF001092F000109219
:10052000F10097FF03C022E02BB99F7790BD89B9F6
:1005300088E98AB986E880BD08959091F00080919D
:10054000F100981789F0E091F100EF5FEF71E0930F
:10055000F100F0E0EE50FF4F808190911201392FB1
:1005600020E0280F311D02C020E031E0C9010895CC
:100570009091CE009F5F9F712091CF009217E1F381
:10058000E92FF0E0E053FF4F80839093CE00559A1F
:100590000895EF92FF92CF93DF93E82EE7017E015B
:1005A000F92EE70101C0E4DF89918823E1F7DF91AB
:1005B000CF91FF90EF900895CF93DF93EC0101C0AE
:1005C000D7DFFE01219684918823D1F7DF91CF9167
:1005D00008952F923F924F925F926F927F928F92E7
:1005E0009F92AF92BF92CF92DF92EF92FF920F93C2
:1005F0001F93CF93DF937B018C01822F90E0FA0150
:10060000E80FF91F1082D22EDA944D2C552447FCA6
:100610005094EA01C40DD51DAA24BB24AAE06A2E79
:10062000712C812C912C1C01089421083108F0E2D6
:10063000CF2E20C0E114F1040105110541F4C501DC
:10064000840D951D8215930514F4C88207C0C80156
:10065000B701A401930114D1605D6883C801B7019B
:10066000A40193010DD179018A01DA9421970894AC
:10067000A108B108D7FEDECFDF91CF911F910F9176
:10068000FF90EF90DF90CF90BF90AF909F908F90B2
:100690007F906F905F904F903F902F900895FF92C2
:1006A0000F931F9386E290E034DFEFDD8FE79FE446
:1006B000A2E181509040A040E1F700C00000789492
:1006C00080E690E066DF8FE790E063DF02DE10E017
:1006D000AFE5BAEE1197F1F700C00000DCDD67DE90
:1006E000F82E55DE2F2D332727FD3095200F311D95
:1006F0002F3F310509F024F437FD04C00F0D03C06E
:100700000FEF01C000E0282F332727FD3095210F80
:10071000311D2F3F310509F024F437FD04C0180FB7
:1007200003C01FEF01C010E080EB90E032DF602FCC
:1007300070E080E090E042E251E024E04ADF82E2B3
:1007400091E027DF88EB90E024DF612F70E080E00C
:1007500090E042E251E024E03CDF82E291E019DFE8
:1007600081EC90E016DF33DE682F70E080E090E0EF
:1007700042E251E024E02DDF82E291E00ADF8BECDF
:1007800090E007DFA5CF40D008F481E00895E89419
:1007900009C097FB3EF490958095709561957F4FC9
:1007A0008F4F9F4F9923A9F0F92F96E9BB27939577
:1007B000F695879577956795B795F111F8CFFAF487
:1007C000BB0F11F460FF1BC06F5F7F4F8F4F9F4FB8
:1007D00016C0882311F096E911C0772321F09EE816
:1007E000872F762F05C0662371F096E8862F70E07C
:1007F00060E02AF09A95660F771F881FDAF7880F56
:100800009695879597F90895990F0008550FAA0BAB
:10081000E0E8FEEF16161706E807F907C0F0121613
:100820001306E407F50798F0621B730B840B950B16
:1008300039F40A2661F0232B242B252B21F408956B
:100840000A2609F4A140A6958FEF811D811D089508
:10085000DBDF08F48FEF0895AA1BBB1B51E107C033
:10086000AA1FBB1FA617B70710F0A61BB70B881F40
:10087000991F5A95A9F780959095BC01CD010895CF
:10088000A1E21A2EAA1BBB1BFD010DC0AA1FBB1F94
:10089000EE1FFF1FA217B307E407F50720F0A21B06
:1008A000B30BE40BF50B661F771F881F991F1A9473
:1008B00069F760957095809590959B01AC01BD019D
:0808C000CF010895F894FFCF69
:1008C8000A0A0A546F7563687061642044656D6F25
:1008D800204170706C69636174696F6E0A0D0079EC
:1008E8006F752073656C6563746564207468652032
:1008F80072656C617469766520706F736974696F6D
:100908006E2064656D6F206D6F6475733A0A0D0013
:10091800785F706F733A200009795F706F733A20BF
:0E0928000009627574746F6E3A20000D0000B5
:00000001FF
