:1000000012C02CC02BC02AC029C028C027C026C0BF
:1000100025C025C023C006C22EC220C01FC01EC0DE
:100020001DC01CC01BC011241FBECFE5D4E0DEBF25
:10003000CDBF10E0A0E6B0E0E6E5F8E002C0059034
:100040000D92A43CB107D9F711E0A4ECB0E001C0D7
:100050001D92A932B107E1F7F9D2FBC3D1CF1F92AC
:100060000F920FB60F9211248F93809127018F5F0B
:10007000809327018F910F900FBE0F901F901895BE
:1000800082B73091270120E0280F311DC901089562
:1000900012BE109227010895DF92EF92FF920F9304
:1000A0001F93CF93DF9383E083BFF2DF8A9A929806
:1000B000E7DFBC0180E090E031D320E030EC45ED9B
:1000C00052E428D387FDF4CF82E083BFDD24D394AC
:1000D00010E0DEDF8A9A9298D3DFBC0180E090E0E6
:1000E0001DD320E030E042E552E414D387FDF4CF85
:1000F0008A98929AC5DFBC0180E090E00FD320E09F
:1001000030E046E153E406D387FDF4CF3BC0C8E0BE
:10011000D0E000E8E12EFF248EE091E0E80EF91E29
:10012000B7DF8A9A9298F7018081802369F0A8DF6F
:10013000BC0180E090E0F2D220E030E042E552E401
:10014000E9D287FDF4CF0CC09BDFBC0180E090E0DA
:10015000E5D220E030E043EC52E4DCD287FDF4CF7E
:100160008A98929A8DDFBC0180E090E0D7D220E09F
:1001700030E046E153E4CED287FDF4CF06952197D7
:1001800079F61F5F1D1518F283DF8A9A929878DF3F
:10019000BC0180E090E0C2D220E030E043EC52E4C9
:1001A000B9D287FDF4CF8A98929A6ADFBC0180E0C9
:1001B00090E0B4D220E030E046E153E4ABD287FDDA
:1001C000F4CF80910E018B3329F0893341F429E07B
:1001D000D22E02C093E0D92E113009F47ACF58DF25
:1001E0004FDFBC0180E090E099D220E030E84BEB9B
:1001F00053E4F5D218160CF43EC08299F1CF829BDD
:10020000FECFCFE0D1E011E001C0182F188288E0C6
:10021000E82EF12C00E83CDF33DFBC0180E090E009
:100220007DD220E030E046E153E4D9D2181614F430
:10023000115022C08299F0CF2BDF829BFECF20DFAE
:10024000BC0180E090E06AD220E030E046E952E470
:1002500061D287FF03C08881800F88830695089448
:10026000E108F108E114F104B1F6812F8F5F2196C6
:10027000893059F601C010E0812FDF91CF911F9195
:100280000F91FF90EF90DF9008958A98929A89B726
:10029000816089BF08958CE380930E01FDDE809319
:1002A00028018091280108958BE380930E0183E655
:1002B00080930F0184E080931001EEDE8DE3809344
:1002C0000E01EADE89E380930E0110921501E4DE4F
:1002D000089580911301282F30E0207730703595F4
:1002E00027958770822B08952091120130E02770A6
:1002F0003070322F2227330F330F8091110190E09D
:10030000877090709695982F882797958795282BBA
:10031000392B8091100190E08F779070282B392B2A
:10032000C90108952091120130E020773070E6E095
:10033000220F331FEA95E1F78091110190E0807759
:10034000907073E0880F991F7A95E1F7282B392B6D
:1003500080910F0190E08F779070282B392BC90185
:10036000089580912801882351F080910F0186FF24
:1003700004C081958F73819508958F73089580E0EF
:10038000089580912801882351F08091100186FF03
:1003900004C081958F73819508958F73089580E0CF
:1003A00008951F93CF93DF9394DF182F9DDFEC0107
:1003B000B9DF9C01209729F0D0930C01C0930B0169
:1003C00004C0C0910B01D0910C012115310529F019
:1003D00030930A012093090104C020910901309152
:1003E0000A011123B9F480910D01882399F0C659AF
:1003F000D040CE0161EB71E0F6D1462F4F5F225D18
:100400003040C9016CEC71E0EED1862F880F860F69
:10041000480F01C040E010930D01842FDF91CF9170
:100420001F9108951F920F920FB60F9211242F93D0
:100430008F939F93EF93FF938BB19CB1E091E60074
:10044000EF5FEF712091E700E21741F08871E093D0
:10045000E600F0E0E851FF4F908301C082E0809316
:100460000801FF91EF919F918F912F910F900FBEF7
:100470000F901F9018951F920F920FB60F92112494
:100480008F939F93EF93FF939091C4008091C50049
:10049000981761F0E091C500EF5FEF71E093C50040
:1004A000F0E0EA53FF4F80818CB901C05598FF916D
:1004B000EF919F918F910F900FBE0F901F90189505
:1004C0001092C4001092C5001092E6001092E7004E
:1004D00097FF03C022E02BB99F7790BD89B988E9C7
:1004E0008AB986E880BD08959091E6008091E70082
:1004F000981789F0E091E700EF5FEF71E093E70074
:10050000F0E0E851FF4F808190910801392F20E001
:10051000280F311D02C020E031E0C90108959091FB
:10052000C4009F5F9F712091C5009217E1F3E92FEE
:10053000F0E0EA53FF4F80839093C400559A0895EA
:10054000EF92FF92CF93DF93E82EE7017E01F92E21
:10055000E70101C0E4DF89918823E1F7DF91CF91C2
:10056000FF90EF900895CF93DF93EC0101C0D7DFA8
:10057000FE01219684918823D1F7DF91CF910895D0
:100580002F923F924F925F926F927F928F929F92A3
:10059000AF92BF92CF92DF92EF92FF920F931F9391
:1005A000CF93DF937B018C01822F90E0FA01E80F5B
:1005B000F91F1082D22EDA944D2C552447FC50940A
:1005C000EA01C40DD51DAA24BB24AAE06A2E712C11
:1005D000812C912C1C01089421083108F0E2CF2EC7
:1005E00020C0E114F1040105110541F4C501840D99
:1005F000951D8215930514F4C88207C0C801B70180
:10060000A401930104D1605D6883C801B701A4010E
:100610009301FDD079018A01DA9421970894A10809
:10062000B108D7FEDECFDF91CF911F910F91FF90E0
:10063000EF90DF90CF90BF90AF909F908F907F9082
:100640006F905F904F903F902F900895FF920F937F
:100650001F9386E290E034DF18DE8FE79FE4A2E18B
:1006600081509040A040E1F700C00000789480E6FF
:1006700090E066DF8FE790E063DF10E0AFE5BAEE71
:100680001197F1F700C0000006DE7BDEF82E69DE70
:100690002F2D332727FD3095200F311D2F3F31059A
:1006A00009F024F437FD04C00F0D03C00FEF01C0A3
:1006B00000E0282F332727FD3095210F311D2F3FD4
:1006C000310509F024F437FD04C0180F03C01FEFF3
:1006D00001C010E080EB90E033DF602F70E080E03D
:1006E00090E047E151E024E04BDF87E191E028DF33
:1006F00088EB90E025DF612F70E080E090E047E13B
:1007000051E024E03DDF87E191E01ADF81EC90E0E9
:1007100017DFB4CF40D008F481E00895E89409C011
:1007200097FB3EF490958095709561957F4F8F4F24
:100730009F4F9923A9F0F92F96E9BB279395F6953A
:10074000879577956795B795F111F8CFFAF4BB0FB8
:1007500011F460FF1BC06F5F7F4F8F4F9F4F16C01C
:10076000882311F096E911C0772321F09EE8872FA6
:10077000762F05C0662371F096E8862F70E060E062
:100780002AF09A95660F771F881FDAF7880F9695DB
:10079000879597F90895990F0008550FAA0BE0E87F
:1007A000FEEF16161706E807F907C0F01216130633
:1007B000E407F50798F0621B730B840B950B39F473
:1007C0000A2661F0232B242B252B21F408950A26D9
:1007D00009F4A140A6958FEF811D811D0895DBDFEF
:1007E00008F48FEF0895AA1BBB1B51E107C0AA1F95
:1007F000BB1FA617B70710F0A61BB70B881F991FC2
:100800005A95A9F780959095BC01CD010895A1E274
:100810001A2EAA1BBB1BFD010DC0AA1FBB1FEE1F7A
:10082000FF1FA217B307E407F50720F0A21BB30BC5
:10083000E40BF50B661F771F881F991F1A9469F741
:1008400060957095809590959B01AC01BD01CF019D
:060850000895F894FFCFAB
:100856000A0A0A546F7563687061642044656D6F97
:10086600204170706C69636174696F6E0A0D00795E
:100876006F752073656C65637465642074686520A4
:1008860072656C617469766520706F736974696FDF
:100896006E2064656D6F206D6F6475733A0A0D0086
:1008A600785F706F733A200009795F706F733A2032
:0408B600000D000031
:00000001FF
