:1000000012C02CC02BC02AC029C028C027C026C0BF
:1000100025C025C023C01CC244C220C01FC01EC0B2
:100020001DC01CC01BC011241FBECFE5D4E0DEBF25
:10003000CDBF10E0A0E6B0E0EAE3F8E002C0059032
:100040000D92A83DB107D9F711E0A8EDB0E001C0CD
:100050001D92AD33B107E1F70FD3EDC3D1CF1F929E
:100060000F920FB60F9211248F9380913B018F5FF7
:1000700080933B018F910F900FBE0F901F901895AA
:1000800082B730913B0120E0280F311DC90108954E
:1000900012BE10923B010895DF92EF92FF920F93F0
:1000A0001F93CF93DF9383E083BFF2DF8A9A929806
:1000B000E7DFBC0180E090E023D320E030EC45EDA9
:1000C00052E41AD387FDF4CF82E083BFDD24D394BA
:1000D00010E0DEDF8A9A9298D3DFBC0180E090E0E6
:1000E0000FD320E030E042E552E406D387FDF4CFA1
:1000F0008A98929AC5DFBC0180E090E001D320E0AD
:1001000030E046E153E4F8D287FDF4CF3BC0C8E0CD
:10011000D0E000E8E12EFF2482E291E0E80EF91E33
:10012000B7DF8A9A9298F7018081802369F0A8DF6F
:10013000BC0180E090E0E4D220E030E042E552E40F
:10014000DBD287FDF4CF0CC09BDFBC0180E090E0E8
:10015000D7D220E030E043EC52E4CED287FDF4CF9A
:100160008A98929A8DDFBC0180E090E0C9D220E0AD
:1001700030E046E153E4C0D287FDF4CF06952197E5
:1001800079F61F5F1D1518F283DF8A9A929878DF3F
:10019000BC0180E090E0B4D220E030E043EC52E4D7
:1001A000ABD287FDF4CF8A98929A6ADFBC0180E0D7
:1001B00090E0A6D220E030E046E153E49DD287FDF6
:1001C000F4CF809122018B3329F0893341F429E067
:1001D000D22E02C093E0D92E113009F47ACF58DF25
:1001E0004FDFBC0180E090E08BD220E030E84BEBA9
:1001F00053E4E7D218160CF43EC08299F1CF829BEB
:10020000FECFC3E2D1E011E001C0182F188288E0D0
:10021000E82EF12C00E83CDF33DFBC0180E090E009
:100220006FD220E030E046E153E4CBD2181614F44C
:10023000115022C08299F0CF2BDF829BFECF20DFAE
:10024000BC0180E090E05CD220E030E046E952E47E
:1002500053D287FF03C08881800F88830695089456
:10026000E108F108E114F104B1F6812F8F5F2196C6
:10027000893059F601C010E0812FDF91CF911F9195
:100280000F91FF90EF90DF9008958A98929A89B726
:10029000816089BF08958CE380932201FDDE809305
:1002A0003C0180913C0108958BE38093220183E619
:1002B0008093230184E080932401EEDE8DE380931C
:1002C0002201EADE89E38093220110922901E4DE13
:1002D00008958BE38093220183E68093230181E0DC
:1002E00080932401D9DE08958BE38093220183E675
:1002F0008093230182E080932401CEDE08958091D3
:100300002701282F30E020773070359527958770AA
:10031000822B08952091260130E027703070322F13
:100320002227330F330F8091250190E08770907062
:100330009695982F882797958795282B392B80910C
:10034000240190E08F779070282B392BC9010895F4
:100350002091260130E020773070E6E0220F331F35
:10036000EA95E1F78091250190E08077907073E045
:10037000880F991F7A95E1F7282B392B809123015B
:1003800090E08F779070282B392BC90108958091C8
:100390003C01882351F08091230186FF04C08195A0
:1003A0008F73819508958F73089580E008958091EB
:1003B0003C01882351F08091240186FF04C081957F
:1003C0008F73819508958F73089580E008951F932A
:1003D000CF93DF9394DF182F9DDFEC01B9DF9C01F1
:1003E000209729F0D0932001C0931F0104C0C09131
:1003F0001F01D09120012115310529F030931E01F4
:1004000020931D0104C020911D0130911E01112374
:10041000B9F480912101882399F0C659D040CE01CA
:1004200061EB71E0D2D1462F4F5F225D3040C901B0
:100430006CEC71E0CAD1862F880F860F480F01C07F
:1004400040E010932101842FDF91CF911F910895F7
:100450001F920F920FB60F9211242F938F939F9399
:10046000EF93FF938BB19CB1E091FA00EF5FEF71D6
:100470002091FB00E21741F08871E093FA00F0E070
:10048000E450FF4F908301C082E080931C01FF91F4
:10049000EF919F918F912F910F900FBE0F901F9012
:1004A00018951F920F920FB60F9211248F939F935E
:1004B000EF93FF939091D8008091D900981761F045
:1004C000E091D900EF5FEF71E093D900F0E0E652E0
:1004D000FF4F80818CB901C05598FF91EF919F919A
:1004E0008F910F900FBE0F901F9018951092D8000B
:1004F0001092D9001092FA001092FB0097FF03C0EF
:1005000022E02BB99F7790BD89B988E98AB986E83E
:1005100080BD08959091FA008091FB00981789F0B2
:10052000E091FB00EF5FEF71E093FB00F0E0E4503F
:10053000FF4F808190911C01392F20E0280F311D41
:1005400002C020E031E0C90108959091D8009F5F7A
:100550009F712091D9009217E1F3E92FF0E0E65264
:10056000FF4F80839093D800559A0895EF92FF92A1
:10057000CF93DF93E82EE7017E01F92EE70101C05A
:10058000E4DF89918823E1F7DF91CF91FF90EF902D
:100590000895CF93DF93EC0101C0D7DFFE012196D0
:1005A00084918823D1F7DF91CF9108952F923F92C4
:1005B0004F925F926F927F928F929F92AF92BF9273
:1005C000CF92DF92EF92FF920F931F93CF93DF931F
:1005D0007B018C01822F90E0FA01E80FF91F108255
:1005E000D22EDA944D2C552447FC5094EA01C40DC8
:1005F000D51DAA24BB24AAE06A2E712C812C912C33
:100600001C01089421083108F0E2CF2E20C0E1142B
:10061000F1040105110541F4C501840D951D8215F4
:10062000930514F4C88207C0C801B701A40193015F
:10063000E0D0605D6883C801B701A4019301D9D0FF
:1006400079018A01DA9421970894A108B108D7FEAC
:10065000DECFDF91CF911F910F91FF90EF90DF9050
:10066000CF90BF90AF909F908F907F906F905F9052
:100670004F903F902F90089586E290E037DF05DE9F
:100680008FE79FE4A2E181509040A040E1F700C0D5
:100690000000789480E690E069DF87E890E066DF0C
:1006A00003DEAFE5BAEE1197F1F700C00000F3DD0D
:1006B0008EDE8330E9F0843028F48130B1F082306E
:1006C00081F70DC0853071F0853018F0863049F71C
:1006D00003C08DEA90E00EC084EB90E00BC08CEB81
:1006E00090E008C081EC90E005C088EC90E002C08A
:1006F0008FEC90E03BDFD5CF40D008F481E0089547
:10070000E89409C097FB3EF49095809570956195AB
:100710007F4F8F4F9F4F9923A9F0F92F96E9BB2761
:100720009395F695879577956795B795F111F8CFDD
:10073000FAF4BB0F11F460FF1BC06F5F7F4F8F4F48
:100740009F4F16C0882311F096E911C0772321F03E
:100750009EE8872F762F05C0662371F096E8862FD6
:1007600070E060E02AF09A95660F771F881FDAF72D
:10077000880F9695879597F90895990F0008550F5A
:10078000AA0BE0E8FEEF16161706E807F907C0F017
:1007900012161306E407F50798F0621B730B840B1F
:1007A000950B39F40A2661F0232B242B252B21F4F9
:1007B00008950A2609F4A140A6958FEF811D811D99
:1007C0000895DBDF08F48FEF0895AA1BBB1B51E1EE
:1007D00007C0AA1FBB1FA617B70710F0A61BB70BB1
:1007E000881F991F5A95A9F780959095BC01CD0156
:1007F0000895A1E21A2EAA1BBB1BFD010DC0AA1F62
:10080000BB1FEE1FFF1FA217B307E407F50720F079
:10081000A21BB30BE40BF50B661F771F881F991FF4
:100820001A9469F760957095809590959B01AC013D
:0A083000BD01CF010895F894FFCF39
:10083A000A0A0A544D313030314120546F756368C9
:10084A007061642044656D6F204170706C696361EA
:10085A0074696F6E0A0D00796F752073656C656334
:10086A0074656420746865206B65797061642064BE
:10087A00656D6F206D6F6475733A0A0D006C65665D
:10088A00740A0D0072696768740A0D0075700A0DA2
:10089A0000646F776E0A0D006261636B0A0D006572
:0808AA006E7465720A0D000076
:00000001FF
