:1000000064C07EC07DC07CC07BC07AC079C078C02F
:1000100077C084C375C075C09DC072C071C070C008
:100020006FC06EC06DC024D99E860B24DF9E860BE8
:100030005073E100E20050532E412008048120CF8C
:10004000F7FEFFFF20404B01E221C04B000022D011
:10005000FC8C02239900394124B99E860B25240685
:100060007FA62600000000270000000028000000F6
:100070000029000000002A000000002B0000000002
:100080002C001273002D36B48000200F213F223F38
:10009000230324082517263F2707280029002CC3FF
:1000A0002DC42EC52FC631203220332034203520D8
:1000B000362037203C3F3D072B35431010023034AB
:1000C000431010012A344310100111241FBECFE544
:1000D000D4E0DEBFCDBF10E0A0E6B0E0E8E0FFE096
:1000E00002C005900D92A43DB107D9F711E0A4ED2F
:1000F000B0E001C01D92AB33B107E1F7C4D502C730
:100100007FCF1F920F920FB60F9211242F938F93D0
:100110009F93EF93FF938BB19CB18871E091D600D0
:10012000EF5FEF712091D500E21739F0E093D60030
:10013000F0E0E752FF4F908301C082E08093D4004B
:10014000FF91EF919F918F912F910F900FBE0F9084
:100150001F9018951F920F920FB60F9211248F9334
:100160009F93EF93FF939091D8008091D7009817B9
:1001700061F0E091D700EF5FEF71E093D700F0E01E
:10018000E750FF4F80818CB901C05598FF91EF91E6
:100190009F918F910F900FBE0F901F901895109206
:1001A000D8001092D7001092D6001092D50097FF79
:1001B00003C022E02BB99F7790BD89B988E98AB93D
:1001C00086E880BD08959091D6008091D50098175B
:1001D00089F0E091D500EF5FEF71E093D500F0E09A
:1001E000E752FF4F80819091D400392F20E0280FF3
:1001F000311D02C020E031E0C90108959091D8007E
:100200009F5F9F712091D7009217E1F3E92FF0E0F3
:10021000E750FF4F80839093D800559A0895CF936D
:10022000DF93EC0101C0EADF89918111FCCFDF91FE
:10023000CF910895CF93DF93EC0101C0DFDFFE0182
:10024000219684918111FACFDF91CF910895B99AC7
:10025000C198889808958FB9779BFECF8FB1089584
:10026000C298F9DF80E0F7DFC29A089585E0F8CF01
:1002700080E0F6DF81700895CF92DF92FF920F93B6
:100280001F93CF93DF931F92CDB7DEB7182FF92EB0
:10029000062F87E14983E4DF498185FD14C0C298B8
:1002A000411106C080EBD7DFC12EDF2C100F06C036
:1002B00080EAF9CFF60181916F01CDDF1C11FACFF1
:1002C000C29A81E001C080E00F90DF91CF911F9131
:1002D0000F91FF90DF90CF900895CF93DF931F92FF
:1002E000CDB7DEB7C2986983B6DF6981862FB3DFE9
:1002F000C29A81E00F90DF91CF910895CF93C82FDC
:10030000C150C63068F482E0ABDF61E070E001C04C
:10031000660FCA95EAF76095682382E2CF91DDCF38
:10032000CF910895CF93C82FC150C63060F482E0BA
:1003300097DF61E070E001C0660FCA95EAF7682BAD
:1003400082E2CF91CACFCF910895682F85E2C5CFC1
:10035000EF92FF920F931F93CF93DF931F92CDB72E
:10036000DEB7162F042FC298798375DFE12E7981CD
:10037000F72E05C080E06FDFF70181937F018E2D9E
:10038000811B8017B8F3C29A0F90DF91CF911F9114
:100390000F91FF90EF9008950F931F93CF93DF93EA
:1003A000EC0187E05DDF082F86FF10C080E658DF94
:1003B000182F482FBE0181E6CBDF87E151DF80FF98
:1003C00006C0602F606487E288DF01C010E0812FE3
:1003D000DF91CF911F910F9108950F931F93CF93AA
:1003E000DF931F92CDB7DEB7C2988C01680F07C0AC
:1003F000F8010F5F1F4F849169832DDF69816013BE
:10040000F7CFC29A81E00F90DF91CF911F910F91AA
:10041000089562E084E390E0E0CF62E082E390E060
:10042000DCCF62E082E390E0D8DFC19880E018DFA3
:10043000682F6E7F80E251DFC19A089562E084E305
:1004400090E0CBDF87E00CDF682F87E246DFC198C2
:1004500080E006DF682F616080E23FDFC19A089587
:10046000813009F4EBCFDDCFCF93C82F87E0F8DEE2
:100470008078CC2339F0811107C062E086E390E0F8
:10048000CF91ABCF8111F9CFCF9108951F93CF9327
:10049000DF9380E0E9DFC0E0D0E0CE01880F991F54
:1004A000FC01E557FF4F6491FC01E657FF4F849133
:1004B00014DF2196C431D10581F766E084EC90E029
:1004C0008CDF66E088EB90E088DF66E08EEB90E002
:1004D00084DF8DE1C5DE811104C062E080E390E03D
:1004E0007CDFE7EBF0E06491E6EBF0E08491F5DE91
:1004F000E5EBF0E06491E4EBF0E08491EEDE81E086
:10050000B3DFC0E0D0E015E01C9FC0011D9F900D3F
:10051000112465E08C5B9F4F60DF2196CE30D105C2
:1005200099F76CE088E390E058DF65E08BE290E0BB
:1005300054DF65E086E290E050DF87EA91E60197BC
:10054000F1F700C0000088E08BDE833611F480E014
:100550008BDFDF91CF911F9171CFEF92FF921F93AD
:10056000CF93DF9300D0CDB7DEB7142FC298698345
:100570007A8371DE6981E62E7A81F72E160F04C028
:10058000F70181917F0167DE1E11FACFC29A81E0E7
:100590000F900F90DF91CF911F91FF90EF900895F2
:1005A0001F93CF93DF93EC01162F42E0BC0180E351
:1005B000D4DF42E0BE018AE2D0DF8CE151DE682F59
:1005C000113011F4616001C06E7F8CE3DF91CF9137
:1005D0001F9183CE0F931F93CF93DF93182FD42FA8
:1005E000022F413208F052C0C82FC150C63008F067
:1005F0004DC0223008F04AC0875FC23020F442E08C
:100600008062ABDF04C0FB016081806266DE812F07
:10061000805FDD2301F16D2F80625FDE81E020DEEF
:1006200061E070E00C2E01C0660F0A94EAF7002327
:1006300011F0682B02C06095682381E24EDE8CE1E8
:100640000FDE61E070E00C2E01C0660F0A94EAF73D
:100650006095682315C060E280623FDE81E000DEC5
:1006600061E070E00C2E01C0660F0A94EAF7D62F05
:10067000682F6D2B81E231DE8CE1F2DD682F6D2B6E
:100680008CE32BDE8C2F4EDE81E001C080E0DF9119
:10069000CF911F910F910895CF93C82F843048F4C4
:1006A00086E0DEDD897F6C2F660F682B86E2CF91B6
:1006B00014CECF91089508952DB1982F93702C7F6B
:1006C000922B9DB99EB182FB882780F99E7F892B52
:1006D0008EB9089597B39C6297BBC29A98B3977DE1
:1006E00098BB90E59DB9E8CFCF93DF931F92CDB72C
:1006F000DEB76983ACDD6981862FECDF2FEB87E203
:1007000099E0215080409040E1F700C000000F9038
:10071000DF91CF91BBCE64E08FEFE6CF1F920F92B7
:100720000FB60F9211248F93809139018F5F8093C0
:1007300039018F910F900FBE0F901F90189522B71F
:100740009091390180E0AC01420F511DCA0108951A
:1007500012BE109239010895DF92EF92FF920F932B
:100760001F93CF93DF9383E083BFF2DF8A9A92983F
:10077000E6DFBC0180E090E0F9D220E030EC45ED0E
:1007800052E4F0D287FDF4CF82E083BFEE24E394FD
:10079000F12CDEDF8A9A9298D2DFBC0180E090E0F3
:1007A000E5D220E030E042E552E4DCD287FDF4CF30
:1007B0008A98929AC4DFBC0180E090E0D7D220E012
:1007C00030E046E153E4CED287FDF4CF3BC0C8E031
:1007D000D0E030E8D32E0F2D10E0005E1E4FB8DFC2
:1007E0008A9A9298F80180818D2179F0A8DFBC0166
:1007F00080E090E0BBD220E030E042E552E4B2D2AB
:1008000087FDF4CF8A98929A0DC099DFBC0180E0F1
:1008100090E0ACD220E030E043EC52E4A3D287FD7C
:10082000F4CFF0CF8CDFBC0180E090E09FD220E0DD
:1008300030E046E153E496D287FDF4CFD694219779
:1008400071F6F394FE1418F283DF8A9A929877DF98
:10085000BC0180E090E08AD220E030E043EC52E43A
:1008600081D287FDF4CF8A98929A69DFBC0180E03B
:1008700090E07CD220E030E046E153E473D287FD83
:10088000F4CF809120018B3329F0893349F429E09A
:10089000E22E02C093E0E92EF1E0FF1609F479CFD1
:1008A00057DF4DDFBC0180E090E060D220E030E80F
:1008B0004BEB53E4BCD218160CF43CC08299F1CF38
:1008C000829BFECFC1E2D1E0FF24F394188208E0BE
:1008D00010E080E8E82E3CDF32DFBC0180E090E0F1
:1008E00045D220E030E046E153E4A1D218161CF4D2
:1008F0008F2D815020C08299EFCF2ADF829BFECFBF
:100900001EDFBC0180E090E031D220E030E046E91B
:1009100052E428D287FF03C088818E0D8883E69435
:1009200001501109C1F6F394219689E0F812CECF57
:1009300088E001C080E0DF91CF911F910F91FF907F
:10094000EF90DF9008958A98929A89B7816089BF65
:1009500008958CE380932001FFDE80933A0180911B
:100960003A010895CF93DF93C0E2D1E08BE388830F
:1009700083E68093210184E080932201EDDE8DE304
:100980008883EADE89E3888310922701DF91CF9183
:10099000E3CE8BE38093200183E68093210181E005
:1009A00080932201D9CE8BE38093200183E680934C
:1009B000210182E080932201CFCE80912501982FE2
:1009C000907796958770892B089520912401277040
:1009D000922F990F990F80E020912301277040E812
:1009E000249F90011124282B392B809122018F778D
:1009F000282BC901089520912401207740E4249FE9
:100A00009001112480912301807748E0849FC001E8
:100A10001124282B392B809121018F77282BC90194
:100A2000089580913A01882351F08091210186FF39
:100A300004C081958F73819508958F73089580E028
:100A4000089580913A01882351F08091220186FF18
:100A500004C081958F73819508958F73089580E008
:100A600008951F93CF93DF93A8DF182FAEDFEC011B
:100A7000C2DF9C01209729F0D0931A01C09319017D
:100A800004C0C0911901D0911A012115310529F036
:100A900030931C0120931B0104C020911B01309155
:100AA0001C01111117C080911D01882399F0CE01FE
:100AB000885C910960E971E0C8D1462F4F5FC90198
:100AC000865E910968EB71E0C0D1962F990F960F61
:100AD000490F01C040E010931D01842FDF91CF9199
:100AE0001F9108952F923F924F925F926F927F9243
:100AF0008F929F92AF92BF92CF92DF92EF92FF922E
:100B00000F931F93CF93DF9300D000D0CDB7DEB704
:100B10004B015C01822F90E0FA01E80FF91F10826F
:100B2000322E3A941C821B82032D112707FD10954B
:100B30007A01E00EF11E4AE0442E512C612C712CFA
:100B40006C0121E0C21AD10850E2252E2DC081147B
:100B50009104A104B10469F48B819C81800F911FE1
:100B60008C159D0534F4EB81FC81EE0DFF1D208278
:100B70000FC08B819C818E0D9F1D9A838983C50137
:100B8000B401A301920175D1605DE981FA816083AE
:100B9000C501B401A30192016CD149015A018B81B5
:100BA0009C8101979C838B838B81830D87FFCFCFA3
:100BB0000F900F900F900F90DF91CF911F910F9199
:100BC000FF90EF90DF90CF90BF90AF909F908F906D
:100BD0007F906F905F904F903F902F900895EDDE43
:100BE000882321F1F2DE9C0140E050E0285C3109CD
:100BF0004109510957FF03C020E030E0A901AFEFE0
:100C0000B0E019D120EB34E040E050E054D1C9010C
:100C1000DA018F3F9105A105B10529F024F08FEF8E
:100C200090E0A0E0B0E080931E01089580911E0145
:100C30000895C3DE882321F1DEDE9C0140E050E010
:100C4000265E31094109510957FF03C020E030E019
:100C5000A901AFEFB0E0EFD020E733E040E050E093
:100C60002AD1C901DA018F3F9105A105B10529F00B
:100C700024F08FEF90E0A0E0B0E080931F01089592
:100C800080911F010895CF93DF93CDB7DEB72897EA
:100C90000FB6F894DEBF0FBECDBF86E290E07FDADC
:100CA00052DE39DD80E0DCDB88E04FDB2FE78FE4CC
:100CB00092E1215080409040E1F700C0000078941C
:100CC00080E690E0ACDA83E890E0A9DA4BDE66E4F7
:100CD000E62E70E3F72E8FEB9DE50197F1F700C04C
:100CE000000037DE7CDF082FA4DF182F66DED82E49
:100CF000DD0CDD0CE9820A831B83DC82FD8240E08F
:100D000065E0CE010196B8DA84EB90E088DA602FD6
:100D100070E080E090E024E049E251E0E3DE89E227
:100D200091E07DDA8CEB90E07ADA612F70E080E080
:100D300090E024E049E251E0D5DE89E291E06FDA0B
:100D400085EC90E06CDA6D2D70E080E090E024E0BE
:100D500049E251E0C7DE89E291E061DA82EB90E09E
:100D60005EDAB9CF40D008F481E00895E89409C074
:100D700097FB3EF490958095709561957F4F8F4FCE
:100D80009F4F9923A9F0F92F96E9BB279395F695E4
:100D9000879577956795B795F111F8CFFAF4BB0F62
:100DA00011F460FF1BC06F5F7F4F8F4F9F4F16C0C6
:100DB000882311F096E911C0772321F09EE8872F50
:100DC000762F05C0662371F096E8862F70E060E00C
:100DD0002AF09A95660F771F881FDAF7880F969585
:100DE000879597F90895990F0008550FAA0BE0E829
:100DF000FEEF16161706E807F907C0F012161306DD
:100E0000E407F50798F0621B730B840B950B39F41C
:100E10000A2661F0232B242B252B21F408950A2682
:100E200009F4A140A6958FEF811D811D0895DBDF98
:100E300008F48FEF08955AD0A59F900DB49F900DA0
:100E4000A49F800D911D11240895AA1BBB1B51E185
:100E500007C0AA1FBB1FA617B70710F0A61BB70B2A
:100E6000881F991F5A95A9F780959095BC01CD01CF
:100E70000895A1E21A2EAA1BBB1BFD010DC0AA1FDB
:100E8000BB1FEE1FFF1FA217B307E407F50720F0F3
:100E9000A21BB30BE40BF50B661F771F881F991F6E
:100EA0001A9469F760957095809590959B01AC01B7
:100EB000BD01CF010895052E97FB16F4009406D0CE
:100EC00057FD0CD0D6DF07FC09D07EF490958095B5
:100ED000709561957F4F8F4F9F4F08955095409526
:100EE000309521953F4F4F4F5F4F0895A29FB0011E
:100EF000B39FC001A39F01D0B29F700D811D11242B
:080F0000911D0895F894FFCF44
:100F08000A0A0A544D313030314120546F756368F4
:100F1800706164206465627567206F75747075749C
:100F28000A0D00796F752073656C656374656420BC
:100F3800746865206162736F6C75746520706F7377
:100F48006974696F6E2064656D6F206D6F64757369
:100F58003A0A0D00785F706F733A200009795F7064
:100F68006F733A2000097A5F7072657373757265E2
:040F78003A2000001B
:00000001FF
