:1000000064C07EC07DC07CC07BC07AC079C078C02F
:1000100077C077C075C06EC296C272C071C070C022
:100020006FC06EC06DC02A344310100130344310CD
:1000300010012B3543101002200F213F223F2303D4
:1000400024082517263F2707280029002CC32DC484
:100050002EC52FC6312032203320342035203620C3
:1000600037203C3F3D0720404B01E221C04B0000C0
:1000700022D0FC8C02239900394124B99E860B259D
:1000800024067FA6260000000027000000002800AC
:1000900000000029000000002A000000002B0000E2
:1000A00000002C001273002D36B480002E41200871
:1000B000048120CFF7FEFFFF5053E200E1005073B0
:1000C00024DF9E860B24D99E860B11241FBECFE50C
:1000D000D4E0DEBFCDBF10E0A0E6B0E0ECE2FFE090
:1000E00002C005900D92A63DB107D9F711E0A6ED2B
:1000F000B0E001C01D92AD33B107E1F7C4D514C71C
:100100007FCF1F920F920FB60F9211248F93809181
:100110003B018F5F80933B018F910F900FBE0F903B
:100120001F90189582B730913B0120E0280F311DB8
:10013000C901089512BE10923B010895DF92EF921B
:10014000FF920F931F93CF93DF9383E083BFF2DF80
:100150008A9A9298E7DFBC0180E090E010D620E018
:1001600030EC45ED52E407D687FDF4CF82E083BF43
:10017000DD24D39410E0DEDF8A9A9298D3DFBC01AD
:1001800080E090E0FCD520E030E042E552E4F3D599
:1001900087FDF4CF8A98929AC5DFBC0180E090E099
:1001A000EED520E030E046E153E4E5D587FDF4CF1D
:1001B0003BC0C8E0D0E000E8E12EFF2482E291E0FD
:1001C000E80EF91EB7DF8A9A9298F70180818023A2
:1001D00069F0A8DFBC0180E090E0D1D520E030E0FC
:1001E00042E552E4C8D587FDF4CF0CC09BDFBC01CB
:1001F00080E090E0C4D520E030E043EC52E4BBD591
:1002000087FDF4CF8A98929A8DDFBC0180E090E060
:10021000B6D520E030E046E153E4ADD587FDF4CF1C
:100220000695219779F61F5F1D1518F283DF8A9ACC
:10023000929878DFBC0180E090E0A1D520E030E02A
:1002400043EC52E498D587FDF4CF8A98929A6ADFFE
:10025000BC0180E090E093D520E030E046E153E43B
:100260008AD587FDF4CF809122018B3329F0893321
:1002700041F429E0D22E02C093E0D92E113009F4C6
:100280007ACF58DF4FDFBC0180E090E078D520E0E6
:1002900030E84BEB53E4D4D518160CF43EC08299E9
:1002A000F1CF829BFECFC3E2D1E011E001C0182F55
:1002B000188288E0E82EF12C00E83CDF33DFBC0137
:1002C00080E090E05CD520E030E046E153E4B8D532
:1002D000181614F4115022C08299F0CF2BDF829BA4
:1002E000FECF20DFBC0180E090E049D520E030E087
:1002F00046E952E440D587FF03C08881800F888398
:1003000006950894E108F108E114F104B1F6812F93
:100310008F5F2196893059F601C010E0812FDF915F
:10032000CF911F910F91FF90EF90DF9008958A98E1
:10033000929A89B7816089BF08958CE380932201E6
:10034000FDDE80933C0180913C0108958BE3809316
:10035000220183E68093230184E080932401EEDE72
:100360008DE380932201EADE89E3809322011092DB
:100370002901E4DE08958BE38093220183E68093D4
:10038000230181E080932401D9DE08958BE38093DB
:10039000220183E68093230182E080932401CEDE54
:1003A000089580912701282F30E02077307035950F
:1003B00027958770822B08952091260130E02770C1
:1003C0003070322F2227330F330F8091250190E0B8
:1003D000877090709695982F882797958795282BEA
:1003E000392B8091240190E08F779070282B392B46
:1003F000C90108952091260130E020773070E6E0B1
:10040000220F331FEA95E1F78091250190E0807774
:10041000907073E0880F991F7A95E1F7282B392B9C
:100420008091230190E08F779070282B392BC901A0
:10043000089580913C01882351F08091230186FF2B
:1004400004C081958F73819508958F73089580E01E
:10045000089580913C01882351F08091240186FF0A
:1004600004C081958F73819508958F73089580E0FE
:1004700008951F93CF93DF9394DF182F9DDFEC0136
:10048000B9DF9C01209729F0D0932001C0931F0170
:1004900004C0C0911F01D09120012115310529F020
:1004A00030931E0120931D0104C020911D01309145
:1004B0001E011123B9F480912101882399F0C85CB1
:1004C000D040CE0160E971E0DED4462F4F5F265E5A
:1004D0003040C90168EB71E0D6D4862F880F860FB3
:1004E000480F01C040E010932101842FDF91CF918C
:1004F0001F9108951F920F920FB60F9211242F9300
:100500008F939F93EF93FF938BB19CB1E091FA008F
:10051000EF5FEF712091FB00E21741F08871E093EB
:10052000FA00F0E0E450FF4F908301C082E0809336
:100530001C01FF91EF919F918F912F910F900FBE12
:100540000F901F9018951F920F920FB60F921124C3
:100550008F939F93EF93FF939091D8008091D90050
:10056000981761F0E091D900EF5FEF71E093D90047
:10057000F0E0E652FF4F80818CB901C05598FF91A1
:10058000EF919F918F910F900FBE0F901F90189534
:100590001092D8001092D9001092FA001092FB002D
:1005A00097FF03C022E02BB99F7790BD89B988E9F6
:1005B0008AB986E880BD08959091FA008091FB0089
:1005C000981789F0E091FB00EF5FEF71E093FB007B
:1005D000F0E0E450FF4F808190911C01392F20E022
:1005E000280F311D02C020E031E0C901089590912B
:1005F000D8009F5F9F712091D9009217E1F3E92FF6
:10060000F0E0E652FF4F80839093D800559A08950A
:10061000EF92FF92CF93DF93E82EE7017E01F92E50
:10062000E70101C0E4DF89918823E1F7DF91CF91F1
:10063000FF90EF900895CF93DF93EC0101C0D7DFD7
:10064000FE01219684918823D1F7DF91CF910895FF
:10065000B99AC198889808958FB9779BFECF8FB1CA
:100660000895C298F9DF80E0F7DFC29A089585E027
:10067000F8DF089580E0F5DF81700895EF92FF9232
:100680001F93DF93CF930F92CDB7DEB77C01162F68
:1006900087E14983E6DF498185FD12C0C298442382
:1006A00011F480EB01C080EAD7DF05C0F70181912A
:1006B0007F01D2DF11501123C9F7C29A81E001C036
:1006C00080E00F90CF91DF911F91FF90EF90089500
:1006D000DF93CF930F92CDB7DEB7C2986983BCDFAB
:1006E0006981862FB9DFC29A81E00F90CF91DF91A7
:1006F00008951F93182F1150163068F482E0B1DF6F
:1007000061E070E002C0660F771F1A95E2F760950E
:10071000682382E2DDDF1F9108951F93182F115087
:10072000163060F482E09DDF61E070E002C0660F89
:10073000771F1A95E2F7682B82E2CADF1F910895AE
:10074000682F85E2C5DF0895EF92FF920F931F9304
:10075000DF93CF930F92CDB7DEB7162F042FC29839
:1007600079837ADF7981412F572F7A0105C080E0A4
:1007700073DFF70181937F018E2D811B8017B8F302
:10078000C29A0F90CF91DF911F910F91FF90EF9040
:1007900008950F931F93CF93DF93EC0187E061DF00
:1007A000082F86FF10C080E65CDF182F81E6BE01AF
:1007B000412FCADF87E155DF80FF06C0602F6064EC
:1007C00087E286DF01C010E0812FDF91CF911F917A
:1007D0000F9108950F931F93DF93CF930F92CDB78F
:1007E000DEB78C01C29808C0F8010F5F1F4F8491DB
:1007F000698332DF698161506623B1F7C29A81E073
:100800000F90CF91DF911F910F9108958AEB90E0A7
:1008100062E0E0DF08958CEB90E062E0DBDF0895BA
:100820008CEB90E062E0D6DFC19880E01ADF682FA1
:100830006E7F80E24DDFC19A08958AEB90E062E01E
:10084000C9DF87E00EDF682F87E242DFC19880E0D2
:1008500008DF682F616080E23BDFC19A0895813034
:1008600011F4EBDF0895DCDF08951F93182F87E064
:10087000F8DE8078112319F0882339F402C0882328
:1008800021F088EB90E062E0A5DF1F910895CF93FF
:10089000DF9380E0EADFC8E3D0E0FE018491319687
:1008A000649116DF2296F0E0C036DF07B1F786E2EA
:1008B00090E066E08FDF82E390E066E08BDF8CE221
:1008C00090E066E087DF8DE1CCDE882321F48EEBBB
:1008D00090E062E07FDFC4E6D0E0FE0184913196D3
:1008E0006491F6DEFE01329784912197FE016491B6
:1008F000EFDE81E0BADFC6E6D0E0CE0165E06ADF78
:100900002596F0E0CC3ADF07C1F78CEA90E06CE086
:1009100061DF80EC90E065E05DDF85EC90E065E014
:1009200059DF8FE799EAA3E081509040A040E1F7BA
:1009300000C0000088E095DE833611F480E095DF8A
:100940007CDFDF91CF9108951F93CF93DF93EB016D
:10095000142FC29881DE03C089917EDE11501123CD
:10096000D9F7C29A81E0DF91CF911F9108951F932B
:10097000CF93DF93EC01162F80E3BE0142E0E4DF6A
:100980008AE2BE0142E0E0DF8CE16BDE113019F457
:10099000682F616002C0682F6E7F8CE399DEDF9163
:1009A000CF911F910895FF920F931F93142FF22E52
:1009B000413208F05DC0082F0150063008F058C0E1
:1009C000223008F055C0875F023020F4806242E098
:1009D000BBDF04C08062FB0160817ADE802F8F5E06
:1009E000112351F18062612F73DE81E03ADEFF2036
:1009F00051F061E070E0002E02C0660F771F0A948C
:100A0000E2F7682B0AC061E070E0002E02C0660FBA
:100A1000771F0A94E2F76095682381E259DE8CE142
:100A200020DE61E070E0002E02C0660F771F0A949E
:100A3000E2F76095682316C0806260E249DE81E0DB
:100A400010DE61E070E0002E02C0660F771F0A948E
:100A5000E2F7162F682F612B81E23ADE8CE101DE8E
:100A6000682F612B8CE334DE802F57DE81E001C0DC
:100A700080E01F910F91FF9008951F93182F8430ED
:100A800040F486E0EEDD897F612F660F682B86E2F9
:100A90001FDE1F91089508952DB1982F93702C7F1C
:100AA000922B9DB99EB18695869581709E7F892BEC
:100AB0008EB9089597B39C6297BBC29A98B3977DFD
:100AC00098BB90E59DB9E8DF0895DF93CF930F922F
:100AD000CDB7DEB76983BCDD6981862FEBDF8FEF91
:100AE0009CEDADE681509040A040E1F700C00000D1
:100AF000CEDE0F90CF91DF9108958FEF64E0E5DFB8
:100B000008952F923F924F925F926F927F928F92B1
:100B10009F92AF92BF92CF92DF92EF92FF920F938C
:100B20001F93CF93DF937B018C01822F90E0FA011A
:100B3000E80FF91F1082D22EDA944D2C552447FC71
:100B40005094EA01C40DD51DAA24BB24AAE06A2E44
:100B5000712C812C912C1C01089421083108F0E2A1
:100B6000CF2E20C0E114F1040105110541F4C501A7
:100B7000840D951D8215930514F4C88207C0C80121
:100B8000B701A401930193D1605D6883C801B701E7
:100B9000A40193018CD179018A01DA9421970894F8
:100BA000A108B108D7FEDECFDF91CF911F910F9141
:100BB000FF90EF90DF90CF90BF90AF909F908F907D
:100BC0007F906F905F904F903F902F900895E9DB5A
:100BD000882341F1F1DBBC0180E090E0685C70406B
:100BE0008040904097FF03C060E070E0CB012FEFA2
:100BF00030E040E050E028D120EB34E040E050E02D
:100C000078D1822F932FA42FB52F8F3F9105A10567
:100C1000B10529F024F08FEF90E0A0E0B0E08093E0
:100C2000D70008958091D7000895BBDB882341F158
:100C3000E1DBBC0180E090E0665E70408040904067
:100C400097FF03C060E070E0CB012FEF30E040E0A1
:100C500050E0FAD020E733E040E050E04AD1822F64
:100C6000932FA42FB52F8F3F9105A105B10529F032
:100C700024F08FEF90E0A0E0B0E08093D6000895DC
:100C80008091D6000895BF92CF92DF92EF92FF92AB
:100C90000F931F93DF93CF93CDB7DEB728970FB68F
:100CA000F894DEBF0FBECDBF86E290E071DC3FDB83
:100CB00024DF80E0D4DD88E043DD8FE79FE4A2E11C
:100CC00081509040A040E1F700C00000789480E699
:100CD00090E09EDC83E890E09BDC38DB16E4E12EBC
:100CE000B0E3FB2E8E010F5F1F4FAFEBBDE51197F9
:100CF000F1F700C0000021DB6ADFB82E96DFC82EB6
:100D000050DBD82EDD0CDD0CE982BA82CB82DC828E
:100D1000FD82C80165E040E0B1DC84EB90E078DC66
:100D20006B2D70E080E090E04BE251E024E0E9DEE2
:100D30008BE291E06DDC8CEB90E06ADC6C2D70E076
:100D400080E090E04BE251E024E0DBDE8BE291E0DA
:100D50005FDC85EC90E05CDC6D2D70E080E090E085
:100D60004BE251E024E0CDDE8BE291E051DC83EDFB
:100D700090E04EDCBACF40D008F481E00895E894CA
:100D800009C097FB3EF490958095709561957F4FD3
:100D90008F4F9F4F9923A9F0F92F96E9BB27939581
:100DA000F695879577956795B795F111F8CFFAF491
:100DB000BB0F11F460FF1BC06F5F7F4F8F4F9F4FC2
:100DC00016C0882311F096E911C0772321F09EE820
:100DD000872F762F05C0662371F096E8862F70E086
:100DE00060E02AF09A95660F771F881FDAF7880F60
:100DF0009695879597F90895990F0008550FAA0BB6
:100E0000E0E8FEEF16161706E807F907C0F012161D
:100E10001306E407F50798F0621B730B840B950B20
:100E200039F40A2661F0232B242B252B21F4089575
:100E30000A2609F4A140A6958FEF811D811D089512
:100E4000DBDF08F48FEF0895629FD001739FF001FC
:100E5000829FE00DF11D649FE00DF11D929FF00D4A
:100E6000839FF00D749FF00D659FF00D9927729F81
:100E7000B00DE11DF91F639FB00DE11DF91FBD010C
:100E8000CF0111240895AA1BBB1B51E107C0AA1F63
:100E9000BB1FA617B70710F0A61BB70B881F991F1B
:100EA0005A95A9F780959095BC01CD010895A1E2CE
:100EB0001A2EAA1BBB1BFD010DC0AA1FBB1FEE1FD4
:100EC000FF1FA217B307E407F50720F0A21BB30B1F
:100ED000E40BF50B661F771F881F991F1A9469F79B
:100EE00060957095809590959B01AC01BD01CF01F7
:100EF000089597FB092E05260ED057FD04D0D7DFA5
:100F00000AD0001C38F450954095309521953F4FFC
:100F10004F4F5F4F0895F6F79095809570956195C6
:0C0F20007F4F8F4F9F4F0895F894FFCF34
:100F2C000A0A0A544D313030314120546F756368D0
:100F3C00706164206465627567206F757470757478
:100F4C000A0D00796F752073656C65637465642098
:100F5C00746865206162736F6C75746520706F7353
:100F6C006974696F6E2064656D6F206D6F64757345
:100F7C003A0A0D00785F706F733A200009795F7040
:100F8C006F733A2000097A5F7072657373757265BE
:060F9C003A20000D0000E8
:00000001FF
